{
  "contractName": "BaseStation",
  "abi": [
    {
      "constant": false,
      "inputs": [
        {
          "internalType": "string",
          "name": "_basename",
          "type": "string"
        },
        {
          "internalType": "string",
          "name": "_clustername",
          "type": "string"
        },
        {
          "internalType": "string",
          "name": "_devicename",
          "type": "string"
        }
      ],
      "name": "addOrdinayNode",
      "outputs": [],
      "payable": false,
      "stateMutability": "nonpayable",
      "type": "function"
    },
    {
      "constant": false,
      "inputs": [
        {
          "internalType": "string",
          "name": "_name",
          "type": "string"
        },
        {
          "internalType": "string",
          "name": "_clustername",
          "type": "string"
        }
      ],
      "name": "getOrdinaynode",
      "outputs": [
        {
          "internalType": "string[]",
          "name": "",
          "type": "string[]"
        }
      ],
      "payable": false,
      "stateMutability": "nonpayable",
      "type": "function"
    },
    {
      "constant": false,
      "inputs": [
        {
          "internalType": "string",
          "name": "_name",
          "type": "string"
        }
      ],
      "name": "addBaseStation",
      "outputs": [],
      "payable": false,
      "stateMutability": "nonpayable",
      "type": "function"
    },
    {
      "constant": true,
      "inputs": [],
      "name": "getBaseStations",
      "outputs": [
        {
          "internalType": "string[]",
          "name": "",
          "type": "string[]"
        }
      ],
      "payable": false,
      "stateMutability": "view",
      "type": "function"
    },
    {
      "constant": false,
      "inputs": [
        {
          "internalType": "string",
          "name": "_basename",
          "type": "string"
        },
        {
          "internalType": "string",
          "name": "_clustername",
          "type": "string"
        }
      ],
      "name": "verifyClusterNode",
      "outputs": [],
      "payable": false,
      "stateMutability": "nonpayable",
      "type": "function"
    },
    {
      "constant": false,
      "inputs": [
        {
          "internalType": "string",
          "name": "_name",
          "type": "string"
        }
      ],
      "name": "getClusterNodes",
      "outputs": [
        {
          "internalType": "string[]",
          "name": "",
          "type": "string[]"
        }
      ],
      "payable": false,
      "stateMutability": "nonpayable",
      "type": "function"
    }
  ],
  "bytecode": "0x608060405234801561001057600080fd5b50610dcb806100206000396000f3fe608060405234801561001057600080fd5b50600436106100625760003560e01c806330d71314146100675780634a35ab49146100835780637d56244b146100b3578063931d018c146100d1578063c79e68bd14610101578063da26e7e31461011d575b600080fd5b610081600480360361007c91908101906108ac565b610139565b005b61009d600480360361009891908101906108ac565b6102ce565b6040516100aa9190610bde565b60405180910390f35b6100bb6103f2565b6040516100c89190610bde565b60405180910390f35b6100eb60048036036100e6919081019061086b565b6104db565b6040516100f89190610bde565b60405180910390f35b61011b6004803603610116919081019061086b565b6105e5565b005b61013760048036036101329190810190610918565b610646565b005b60011515610146836106c2565b1515141561028f5760008090505b6001836040516101649190610bc7565b908152602001604051809103902060000180549050811015610221576001836040516101909190610bc7565b908152602001604051809103902060000181815481106101ac57fe5b906000526020600020016040516101c39190610bb0565b604051809103902082805190602001201415610214576040517f08c379a000000000000000000000000000000000000000000000000000000000815260040161020b90610c00565b60405180910390fd5b8080600101915050610154565b506001826040516102329190610bc7565b908152602001604051809103902060000181908060018154018082558091505090600182039060005260206000200160009091929091909150908051906020019061027e929190610772565b505061028a8282610733565b6102ca565b6040517f08c379a00000000000000000000000000000000000000000000000000000000081526004016102c190610c20565b60405180910390fd5b5050565b60606000836040516102e09190610bc7565b9081526020016040518091039020826040516102fc9190610bc7565b9081526020016040518091039020805480602002602001604051908101604052809291908181526020016000905b828210156103e6578382906000526020600020018054600181600116156101000203166002900480601f0160208091040260200160405190810160405280929190818152602001828054600181600116156101000203166002900480156103d25780601f106103a7576101008083540402835291602001916103d2565b820191906000526020600020905b8154815290600101906020018083116103b557829003601f168201915b50505050508152602001906001019061032a565b50505050905092915050565b60606002805480602002602001604051908101604052809291908181526020016000905b828210156104d2578382906000526020600020018054600181600116156101000203166002900480601f0160208091040260200160405190810160405280929190818152602001828054600181600116156101000203166002900480156104be5780601f10610493576101008083540402835291602001916104be565b820191906000526020600020905b8154815290600101906020018083116104a157829003601f168201915b505050505081526020019060010190610416565b50505050905090565b60606001826040516104ed9190610bc7565b9081526020016040518091039020600001805480602002602001604051908101604052809291908181526020016000905b828210156105da578382906000526020600020018054600181600116156101000203166002900480601f0160208091040260200160405190810160405280929190818152602001828054600181600116156101000203166002900480156105c65780601f1061059b576101008083540402835291602001916105c6565b820191906000526020600020905b8154815290600101906020018083116105a957829003601f168201915b50505050508152602001906001019061051e565b505050509050919050565b6001816040516105f59190610bc7565b9081526020016040518091039020506002819080600181540180825580915050906001820390600052602060002001600090919290919091509080519060200190610641929190610772565b505050565b6000836040516106569190610bc7565b9081526020016040518091039020826040516106729190610bc7565b90815260200160405180910390208190806001815401808255809150509060018203906000526020600020016000909192909190915090805190602001906106bb929190610772565b5050505050565b600080600090505b60028054905081101561072857600281815481106106e457fe5b906000526020600020016040516106fb9190610bb0565b60405180910390208380519060200120141561071b57600191505061072e565b80806001019150506106ca565b50600090505b919050565b6000826040516107439190610bc7565b90815260200160405180910390208160405161075f9190610bc7565b9081526020016040518091039020505050565b828054600181600116156101000203166002900490600052602060002090601f016020900481019282601f106107b357805160ff19168380011785556107e1565b828001600101855582156107e1579182015b828111156107e05782518255916020019190600101906107c5565b5b5090506107ee91906107f2565b5090565b61081491905b808211156108105760008160009055506001016107f8565b5090565b90565b600082601f83011261082857600080fd5b813561083b61083682610c6d565b610c40565b9150808252602083016020830185838301111561085757600080fd5b610862838284610d35565b50505092915050565b60006020828403121561087d57600080fd5b600082013567ffffffffffffffff81111561089757600080fd5b6108a384828501610817565b91505092915050565b600080604083850312156108bf57600080fd5b600083013567ffffffffffffffff8111156108d957600080fd5b6108e585828601610817565b925050602083013567ffffffffffffffff81111561090257600080fd5b61090e85828601610817565b9150509250929050565b60008060006060848603121561092d57600080fd5b600084013567ffffffffffffffff81111561094757600080fd5b61095386828701610817565b935050602084013567ffffffffffffffff81111561097057600080fd5b61097c86828701610817565b925050604084013567ffffffffffffffff81111561099957600080fd5b6109a586828701610817565b9150509250925092565b60006109bb8383610af7565b905092915050565b60006109ce82610cbe565b6109d88185610cec565b9350836020820285016109ea85610c99565b8060005b85811015610a265784840389528151610a0785826109af565b9450610a1283610cdf565b925060208a019950506001810190506109ee565b50829750879550505050505092915050565b600081546001811660008114610a555760018114610a7a57610abe565b607f6002830416610a668187610cfd565b955060ff1983168652808601935050610abe565b60028204610a888187610cfd565b9550610a9385610ca9565b60005b82811015610ab557815481890152600182019150602081019050610a96565b82880195505050505b505092915050565b6000610ad182610cd4565b610adb8185610d2a565b9350610aeb818560208601610d44565b80840191505092915050565b6000610b0282610cc9565b610b0c8185610d08565b9350610b1c818560208601610d44565b610b2581610d77565b840191505092915050565b6000610b3d601a83610d19565b91507f636c7573746572206e6f646520616c72656164792065786974730000000000006000830152602082019050919050565b6000610b7d601683610d19565b91507f6261736573746174696f6e73206e6f74206578697374000000000000000000006000830152602082019050919050565b6000610bbc8284610a38565b915081905092915050565b6000610bd38284610ac6565b915081905092915050565b60006020820190508181036000830152610bf881846109c3565b905092915050565b60006020820190508181036000830152610c1981610b30565b9050919050565b60006020820190508181036000830152610c3981610b70565b9050919050565b6000604051905081810181811067ffffffffffffffff82111715610c6357600080fd5b8060405250919050565b600067ffffffffffffffff821115610c8457600080fd5b601f19601f8301169050602081019050919050565b6000819050602082019050919050565b60008190508160005260206000209050919050565b600081519050919050565b600081519050919050565b600081519050919050565b6000602082019050919050565b600082825260208201905092915050565b600081905092915050565b600082825260208201905092915050565b600082825260208201905092915050565b600081905092915050565b82818337600083830152505050565b60005b83811015610d62578082015181840152602081019050610d47565b83811115610d71576000848401525b50505050565b6000601f19601f830116905091905056fea365627a7a723158201d777dc28c0d2fde7fa8b07893b5762a90b94e73cb4060ce10f5ed071963fcaf6c6578706572696d656e74616cf564736f6c63430005100040",
  "source": "pragma solidity >=0.4.21 <0.7.0;\npragma experimental ABIEncoderV2;\n\n  \ncontract ClusterHeadNode {\n\n  struct ClusterNode {\n      \n      mapping(string => string[]) ordinarynodes;\n  }\n  mapping(string =>  mapping(string => string[])) clusternodes;\n\n\n\n  function addClusterNode(string memory  _basename , string memory _clustername) internal {\n      \n        clusternodes[_basename][_clustername];\n        \n    }\n    \n\n  function addOrdinayNode(string memory  _basename , string memory _clustername, string memory  _devicename)public {\n      clusternodes[_basename][_clustername].push(_devicename);\n  }\n    \n    function getOrdinaynode(string memory _name , string memory _clustername ) public returns(string[] memory ){\n        return clusternodes[_name][_clustername];\n    }\n    \n    \n\n}\n\n\n\ncontract BaseStation is ClusterHeadNode {\n\n  struct BaseStation {\n      \n    //   string name;\n      string[] ClusterHeadNodes;\n  }\n  mapping(string => BaseStation) basestations;\n\n\n  string[] allbasestations;\n  \n  function addBaseStation(string memory _name) public {\n        basestations[_name];\n        allbasestations.push(_name);\n        \n    }\n    \n    function getBaseStations() public view returns(string[] memory){     \n        return allbasestations;\n    }\n    \n    function verifyBaseStation(string memory _name) internal returns(bool){\n        \n        for(uint i=0 ; i<allbasestations.length ;i++){\n            if(keccak256(bytes(_name)) == keccak256(bytes(allbasestations[i]))){\n            return true;\n            }\n        }\n        return false;\n    }\n    function verifyClusterNode(string memory  _basename , string memory _clustername) public {\n        \n        if(verifyBaseStation(_basename) == true){\n            for(uint i=0 ; i<basestations[_basename].ClusterHeadNodes.length ;i++){\n                if(keccak256(bytes(_clustername)) == keccak256(bytes(basestations[_basename].ClusterHeadNodes[i]))){\n                    // return basestations[_basename].ClusterHeadNodes[i];\n                    revert(\"cluster node already exits\");\n                }\n            }\n             basestations[_basename].ClusterHeadNodes.push(_clustername);\n             addClusterNode(_basename, _clustername);\n        }else{\n            revert(\"basestations not exist\");\n        }\n    }\n    \n    function getClusterNodes(string memory _name) public returns(string[] memory ){\n        return basestations[_name].ClusterHeadNodes;\n    }\n    \n\n}\n\n",
  "sourcePath": "D:/Blockchain/react-truffle/contracts/BaseStation.sol",
  "compiler": {
    "name": "solc",
    "version": "0.5.16+commit.9c3226ce.Emscripten.clang"
  },
  "schemaVersion": "3.3.4",
  "updatedAt": "2021-04-03T08:56:08.287Z",
  "networkType": "ethereum",
  "devdoc": {
    "methods": {}
  },
  "userdoc": {
    "methods": {}
  }
}