{
  "contractName": "BaseStations",
  "abi": [
    {
      "constant": false,
      "inputs": [],
      "name": "addClusterNode",
      "outputs": [],
      "payable": false,
      "stateMutability": "nonpayable",
      "type": "function"
    },
    {
      "constant": true,
      "inputs": [
        {
          "internalType": "string",
          "name": "_name",
          "type": "string"
        }
      ],
      "name": "getClusterNodes",
      "outputs": [
        {
          "internalType": "string[]",
          "name": "",
          "type": "string[]"
        }
      ],
      "payable": false,
      "stateMutability": "view",
      "type": "function"
    },
    {
      "constant": false,
      "inputs": [
        {
          "internalType": "string",
          "name": "_name",
          "type": "string"
        }
      ],
      "name": "addBaseStation",
      "outputs": [],
      "payable": false,
      "stateMutability": "nonpayable",
      "type": "function"
    },
    {
      "constant": true,
      "inputs": [],
      "name": "getBaseStations",
      "outputs": [
        {
          "internalType": "string[]",
          "name": "",
          "type": "string[]"
        }
      ],
      "payable": false,
      "stateMutability": "view",
      "type": "function"
    },
    {
      "constant": false,
      "inputs": [
        {
          "internalType": "string",
          "name": "_basename",
          "type": "string"
        },
        {
          "internalType": "string",
          "name": "_clustername",
          "type": "string"
        }
      ],
      "name": "verifyClusterNode",
      "outputs": [],
      "payable": false,
      "stateMutability": "nonpayable",
      "type": "function"
    }
  ],
  "bytecode": "0x608060405234801561001057600080fd5b50610b6d806100206000396000f3fe608060405234801561001057600080fd5b50600436106100575760003560e01c806327a22f7d1461005c57806330d71314146100665780637d56244b14610082578063931d018c146100a0578063c79e68bd146100d0575b600080fd5b6100646100ec565b005b610080600480360361007b91908101906106e5565b6100ee565b005b61008a610279565b6040516100979190610980565b60405180910390f35b6100ba60048036036100b591908101906106a4565b610362565b6040516100c79190610980565b60405180910390f35b6100ea60048036036100e591908101906106a4565b610469565b005b565b600115156100fb8361053a565b1515141561023a5760008090505b6001836040516101199190610969565b9081526020016040518091039020600001805490508110156101d6576001836040516101459190610969565b9081526020016040518091039020600001818154811061016157fe5b906000526020600020016040516101789190610952565b6040518091039020828051906020012014156101c9576040517f08c379a00000000000000000000000000000000000000000000000000000000081526004016101c0906109a2565b60405180910390fd5b8080600101915050610109565b506001826040516101e79190610969565b90815260200160405180910390206000018190806001815401808255809150509060018203906000526020600020016000909192909190915090805190602001906102339291906105ab565b5050610275565b6040517f08c379a000000000000000000000000000000000000000000000000000000000815260040161026c906109c2565b60405180910390fd5b5050565b60606002805480602002602001604051908101604052809291908181526020016000905b82821015610359578382906000526020600020018054600181600116156101000203166002900480601f0160208091040260200160405190810160405280929190818152602001828054600181600116156101000203166002900480156103455780601f1061031a57610100808354040283529160200191610345565b820191906000526020600020905b81548152906001019060200180831161032857829003601f168201915b50505050508152602001906001019061029d565b50505050905090565b60606000826040516103749190610969565b9081526020016040518091039020805480602002602001604051908101604052809291908181526020016000905b8282101561045e578382906000526020600020018054600181600116156101000203166002900480601f01602080910402602001604051908101604052809291908181526020018280546001816001161561010002031660029004801561044a5780601f1061041f5761010080835404028352916020019161044a565b820191906000526020600020905b81548152906001019060200180831161042d57829003601f168201915b5050505050815260200190600101906103a2565b505050509050919050565b6001816040516104799190610969565b90815260200160405180910390206000018060018154018082558091505090600182039060005260206000200160006040518060400160405280600381526020017f6368310000000000000000000000000000000000000000000000000000000000815250909190915090805190602001906104f69291906105ab565b505060028190806001815401808255809150509060018203906000526020600020016000909192909190915090805190602001906105359291906105ab565b505050565b600080600090505b6002805490508110156105a0576002818154811061055c57fe5b906000526020600020016040516105739190610952565b6040518091039020838051906020012014156105935760019150506105a6565b8080600101915050610542565b50600090505b919050565b828054600181600116156101000203166002900490600052602060002090601f016020900481019282601f106105ec57805160ff191683800117855561061a565b8280016001018555821561061a579182015b828111156106195782518255916020019190600101906105fe565b5b509050610627919061062b565b5090565b61064d91905b80821115610649576000816000905550600101610631565b5090565b90565b600082601f83011261066157600080fd5b813561067461066f82610a0f565b6109e2565b9150808252602083016020830185838301111561069057600080fd5b61069b838284610ad7565b50505092915050565b6000602082840312156106b657600080fd5b600082013567ffffffffffffffff8111156106d057600080fd5b6106dc84828501610650565b91505092915050565b600080604083850312156106f857600080fd5b600083013567ffffffffffffffff81111561071257600080fd5b61071e85828601610650565b925050602083013567ffffffffffffffff81111561073b57600080fd5b61074785828601610650565b9150509250929050565b600061075d8383610899565b905092915050565b600061077082610a60565b61077a8185610a8e565b93508360208202850161078c85610a3b565b8060005b858110156107c857848403895281516107a98582610751565b94506107b483610a81565b925060208a01995050600181019050610790565b50829750879550505050505092915050565b6000815460018116600081146107f7576001811461081c57610860565b607f60028304166108088187610a9f565b955060ff1983168652808601935050610860565b6002820461082a8187610a9f565b955061083585610a4b565b60005b8281101561085757815481890152600182019150602081019050610838565b82880195505050505b505092915050565b600061087382610a76565b61087d8185610acc565b935061088d818560208601610ae6565b80840191505092915050565b60006108a482610a6b565b6108ae8185610aaa565b93506108be818560208601610ae6565b6108c781610b19565b840191505092915050565b60006108df601a83610abb565b91507f636c7573746572206e6f646520616c72656164792065786974730000000000006000830152602082019050919050565b600061091f601683610abb565b91507f6261736573746174696f6e73206e6f74206578697374000000000000000000006000830152602082019050919050565b600061095e82846107da565b915081905092915050565b60006109758284610868565b915081905092915050565b6000602082019050818103600083015261099a8184610765565b905092915050565b600060208201905081810360008301526109bb816108d2565b9050919050565b600060208201905081810360008301526109db81610912565b9050919050565b6000604051905081810181811067ffffffffffffffff82111715610a0557600080fd5b8060405250919050565b600067ffffffffffffffff821115610a2657600080fd5b601f19601f8301169050602081019050919050565b6000819050602082019050919050565b60008190508160005260206000209050919050565b600081519050919050565b600081519050919050565b600081519050919050565b6000602082019050919050565b600082825260208201905092915050565b600081905092915050565b600082825260208201905092915050565b600082825260208201905092915050565b600081905092915050565b82818337600083830152505050565b60005b83811015610b04578082015181840152602081019050610ae9565b83811115610b13576000848401525b50505050565b6000601f19601f830116905091905056fea365627a7a72315820acc61d5a703cf63deec30a4b127dea36d5b73de4d6e13a8002e655adb0433d0b6c6578706572696d656e74616cf564736f6c63430005100040",
  "source": "// SPDX-License-Identifier: MIT\npragma solidity >=0.4.21 <0.7.0;\npragma experimental ABIEncoderV2;\n\n\ncontract ClusterHeadNode {\n\n  \n  mapping(string => string[]) headnodes;\n\n  function addClusterNode() public {\n      \n        // headnodes[] ;\n        \n    }\n    \n    function getClusterNodes(string memory _name) public view returns(string[] memory){\n        return headnodes[_name];\n    }\n\n}\n\ncontract BaseStations is ClusterHeadNode {\n\n  struct BaseStation {\n      \n    //   string name;\n      string[] ClusterHeadNodes;\n  }\n  mapping(string => BaseStation) basestations;\n\n  string[] allbasestations;\n  \n  function addBaseStation(string memory _name) public {\n        basestations[_name].ClusterHeadNodes.push('ch1');\n        allbasestations.push(_name);\n        \n    }\n    \n    function getBaseStations() public view returns(string[] memory){     \n        return allbasestations;\n    }\n    \n    function verifyBaseStation(string memory _name) internal returns(bool){\n        \n        for(uint i=0 ; i<allbasestations.length ;i++){\n            if(keccak256(bytes(_name)) == keccak256(bytes(allbasestations[i]))){\n            return true;\n            }\n        }\n        return false;\n    }\n    function verifyClusterNode(string memory  _basename , string memory _clustername) public {\n        \n        if(verifyBaseStation(_basename) == true){\n            for(uint i=0 ; i<basestations[_basename].ClusterHeadNodes.length ;i++){\n                if(keccak256(bytes(_clustername)) == keccak256(bytes(basestations[_basename].ClusterHeadNodes[i]))){\n                    // return basestations[_basename].ClusterHeadNodes[i];\n                    revert(\"cluster node already exits\");\n                }\n            }\n             basestations[_basename].ClusterHeadNodes.push(_clustername);\n        }else{\n            revert(\"basestations not exist\");\n        }\n    }\n\n}\n\ncontract SimpleStorage is BaseStations {\n  uint storedData;\n  uint[] public arr = [20,30,40];\n\n  function addvalue(uint x) public{\n    arr.push(x);\n  }\n\n  function getvalue() public view returns(uint[] memory ){\n    return arr;\n  }\n  function set(uint x) public {\n    storedData = x;\n  }\n\n  function get() public view returns (uint) {\n    return storedData;\n  }\n}",
  "sourcePath": "D:/Blockchain/react-truffle/contracts/SimpleStorage.sol",
  "compiler": {
    "name": "solc",
    "version": "0.5.16+commit.9c3226ce.Emscripten.clang"
  },
  "schemaVersion": "3.3.4",
  "updatedAt": "2021-04-02T15:12:17.789Z",
  "devdoc": {
    "methods": {}
  },
  "userdoc": {
    "methods": {}
  }
}