{
  "contractName": "BaseStation",
  "abi": [
    {
      "constant": true,
      "inputs": [
        {
          "internalType": "string",
          "name": "_basename",
          "type": "string"
        },
        {
          "internalType": "string",
          "name": "_clustername",
          "type": "string"
        }
      ],
      "name": "getOrdinaynode",
      "outputs": [
        {
          "internalType": "string[]",
          "name": "",
          "type": "string[]"
        }
      ],
      "payable": false,
      "stateMutability": "view",
      "type": "function"
    },
    {
      "constant": true,
      "inputs": [],
      "name": "getBaseStations",
      "outputs": [
        {
          "internalType": "string[]",
          "name": "",
          "type": "string[]"
        }
      ],
      "payable": false,
      "stateMutability": "view",
      "type": "function"
    },
    {
      "constant": true,
      "inputs": [
        {
          "internalType": "string",
          "name": "_name",
          "type": "string"
        }
      ],
      "name": "getClusterNodes",
      "outputs": [
        {
          "internalType": "string[]",
          "name": "",
          "type": "string[]"
        }
      ],
      "payable": false,
      "stateMutability": "view",
      "type": "function"
    },
    {
      "constant": false,
      "inputs": [
        {
          "internalType": "string",
          "name": "_basename",
          "type": "string"
        }
      ],
      "name": "Request_of_Registration",
      "outputs": [],
      "payable": false,
      "stateMutability": "nonpayable",
      "type": "function"
    },
    {
      "constant": false,
      "inputs": [
        {
          "internalType": "string",
          "name": "_basename",
          "type": "string"
        },
        {
          "internalType": "string",
          "name": "_clustername",
          "type": "string"
        },
        {
          "internalType": "string",
          "name": "_devicename",
          "type": "string"
        }
      ],
      "name": "Request_of_Registration",
      "outputs": [],
      "payable": false,
      "stateMutability": "nonpayable",
      "type": "function"
    },
    {
      "constant": false,
      "inputs": [
        {
          "internalType": "string",
          "name": "_basename",
          "type": "string"
        },
        {
          "internalType": "string",
          "name": "_clustername",
          "type": "string"
        }
      ],
      "name": "Request_of_Registration",
      "outputs": [],
      "payable": false,
      "stateMutability": "nonpayable",
      "type": "function"
    }
  ],
  "bytecode": "0x608060405234801561001057600080fd5b50611187806100206000396000f3fe608060405234801561001057600080fd5b50600436106100625760003560e01c80632aa260ed146100675780634a35ab491461008357806358587d94146100b35780635c12fefe146100cf5780637d56244b146100eb578063931d018c14610109575b600080fd5b610081600480360361007c9190810190610b21565b610139565b005b61009d60048036036100989190810190610b62565b610195565b6040516100aa9190610f46565b60405180910390f35b6100cd60048036036100c89190810190610bce565b6102b9565b005b6100e960048036036100e49190810190610b62565b6102e0565b005b6100f361039d565b6040516101009190610f46565b60405180910390f35b610123600480360361011e9190810190610b21565b610486565b6040516101309190610f46565b60405180910390f35b6001151561014682610590565b15151415610189576040517f08c379a000000000000000000000000000000000000000000000000000000000815260040161018090610f88565b60405180910390fd5b61019281610601565b50565b60606000836040516101a79190610f2f565b9081526020016040518091039020826040516101c39190610f2f565b9081526020016040518091039020805480602002602001604051908101604052809291908181526020016000905b828210156102ad578382906000526020600020018054600181600116156101000203166002900480601f0160208091040260200160405190810160405280929190818152602001828054600181600116156101000203166002900480156102995780601f1061026e57610100808354040283529160200191610299565b820191906000526020600020905b81548152906001019060200180831161027c57829003601f168201915b5050505050815260200190600101906101f1565b50505050905092915050565b600115156102c78484610662565b151514156102db576102da838383610766565b5b505050565b600115156102ee8383610662565b15151415610331576040517f08c379a000000000000000000000000000000000000000000000000000000000815260040161032890610f68565b60405180910390fd5b6001826040516103419190610f2f565b908152602001604051809103902060000181908060018154018082558091505090600182039060005260206000200160009091929091909150908051906020019061038d929190610a28565b505061039982826107fe565b5050565b60606002805480602002602001604051908101604052809291908181526020016000905b8282101561047d578382906000526020600020018054600181600116156101000203166002900480601f0160208091040260200160405190810160405280929190818152602001828054600181600116156101000203166002900480156104695780601f1061043e57610100808354040283529160200191610469565b820191906000526020600020905b81548152906001019060200180831161044c57829003601f168201915b5050505050815260200190600101906103c1565b50505050905090565b60606001826040516104989190610f2f565b9081526020016040518091039020600001805480602002602001604051908101604052809291908181526020016000905b82821015610585578382906000526020600020018054600181600116156101000203166002900480601f0160208091040260200160405190810160405280929190818152602001828054600181600116156101000203166002900480156105715780601f1061054657610100808354040283529160200191610571565b820191906000526020600020905b81548152906001019060200180831161055457829003601f168201915b5050505050815260200190600101906104c9565b505050509050919050565b600080600090505b6002805490508110156105f657600281815481106105b257fe5b906000526020600020016040516105c99190610f18565b6040518091039020838051906020012014156105e95760019150506105fc565b8080600101915050610598565b50600090505b919050565b6001816040516106119190610f2f565b908152602001604051809103902050600281908060018154018082558091505090600182039060005260206000200160009091929091909150908051906020019061065d929190610a28565b505050565b60006001151561067184610590565b151514156107255760008090505b60018460405161068f9190610f2f565b90815260200160405180910390206000018054905081101561071b576001846040516106bb9190610f2f565b908152602001604051809103902060000181815481106106d757fe5b906000526020600020016040516106ee9190610f18565b60405180910390208380519060200120141561070e576001915050610760565b808060010191505061067f565b5060009050610760565b6040517f08c379a000000000000000000000000000000000000000000000000000000000815260040161075790610fc8565b60405180910390fd5b92915050565b6001151561077584848461083d565b151514156107ee577f44657669636520416c72656179204578697473000000000000000000000000006040516107ab9190610efd565b60405180910390a06040517f08c379a00000000000000000000000000000000000000000000000000000000081526004016107e590610fa8565b60405180910390fd5b6107f98383836109ac565b505050565b60008260405161080e9190610f2f565b90815260200160405180910390208160405161082a9190610f2f565b9081526020016040518091039020505050565b600080600090505b6000856040516108559190610f2f565b9081526020016040518091039020846040516108719190610f2f565b90815260200160405180910390208054905081101561099f5760008560405161089a9190610f2f565b9081526020016040518091039020846040516108b69190610f2f565b90815260200160405180910390208054905060001b6040516108d89190610efd565b60405180910390a06000856040516108f09190610f2f565b90815260200160405180910390208460405161090c9190610f2f565b9081526020016040518091039020818154811061092557fe5b9060005260206000200160405161093c9190610f18565b604051809103902083805190602001201415610992577f74727565000000000000000000000000000000000000000000000000000000006040516109809190610efd565b60405180910390a060019150506109a5565b8080600101915050610845565b50600090505b9392505050565b6000836040516109bc9190610f2f565b9081526020016040518091039020826040516109d89190610f2f565b9081526020016040518091039020819080600181540180825580915050906001820390600052602060002001600090919290919091509080519060200190610a21929190610a28565b5050505050565b828054600181600116156101000203166002900490600052602060002090601f016020900481019282601f10610a6957805160ff1916838001178555610a97565b82800160010185558215610a97579182015b82811115610a96578251825591602001919060010190610a7b565b5b509050610aa49190610aa8565b5090565b610aca91905b80821115610ac6576000816000905550600101610aae565b5090565b90565b600082601f830112610ade57600080fd5b8135610af1610aec82611015565b610fe8565b91508082526020830160208301858383011115610b0d57600080fd5b610b188382846110e7565b50505092915050565b600060208284031215610b3357600080fd5b600082013567ffffffffffffffff811115610b4d57600080fd5b610b5984828501610acd565b91505092915050565b60008060408385031215610b7557600080fd5b600083013567ffffffffffffffff811115610b8f57600080fd5b610b9b85828601610acd565b925050602083013567ffffffffffffffff811115610bb857600080fd5b610bc485828601610acd565b9150509250929050565b600080600060608486031215610be357600080fd5b600084013567ffffffffffffffff811115610bfd57600080fd5b610c0986828701610acd565b935050602084013567ffffffffffffffff811115610c2657600080fd5b610c3286828701610acd565b925050604084013567ffffffffffffffff811115610c4f57600080fd5b610c5b86828701610acd565b9150509250925092565b6000610c718383610dc4565b905092915050565b6000610c8482611066565b610c8e8185611094565b935083602082028501610ca085611041565b8060005b85811015610cdc5784840389528151610cbd8582610c65565b9450610cc883611087565b925060208a01995050600181019050610ca4565b50829750879550505050505092915050565b610cff610cfa826110dd565b611129565b82525050565b600081546001811660008114610d225760018114610d4757610d8b565b607f6002830416610d3381876110a5565b955060ff1983168652808601935050610d8b565b60028204610d5581876110a5565b9550610d6085611051565b60005b82811015610d8257815481890152600182019150602081019050610d63565b82880195505050505b505092915050565b6000610d9e8261107c565b610da881856110d2565b9350610db88185602086016110f6565b80840191505092915050565b6000610dcf82611071565b610dd981856110b0565b9350610de98185602086016110f6565b610df281611133565b840191505092915050565b6000610e0a601a836110c1565b91507f636c7573746572206e6f646520616c72656164792065786974730000000000006000830152602082019050919050565b6000610e4a6019836110c1565b91507f4261736553746174696f6e20616c7265616479206578697473000000000000006000830152602082019050919050565b6000610e8a6013836110c1565b91507f44657669636520416c72656179204578697473000000000000000000000000006000830152602082019050919050565b6000610eca6016836110c1565b91507f6261736573746174696f6e73206e6f74206578697374000000000000000000006000830152602082019050919050565b6000610f098284610cee565b60208201915081905092915050565b6000610f248284610d05565b915081905092915050565b6000610f3b8284610d93565b915081905092915050565b60006020820190508181036000830152610f608184610c79565b905092915050565b60006020820190508181036000830152610f8181610dfd565b9050919050565b60006020820190508181036000830152610fa181610e3d565b9050919050565b60006020820190508181036000830152610fc181610e7d565b9050919050565b60006020820190508181036000830152610fe181610ebd565b9050919050565b6000604051905081810181811067ffffffffffffffff8211171561100b57600080fd5b8060405250919050565b600067ffffffffffffffff82111561102c57600080fd5b601f19601f8301169050602081019050919050565b6000819050602082019050919050565b60008190508160005260206000209050919050565b600081519050919050565b600081519050919050565b600081519050919050565b6000602082019050919050565b600082825260208201905092915050565b600081905092915050565b600082825260208201905092915050565b600082825260208201905092915050565b600081905092915050565b6000819050919050565b82818337600083830152505050565b60005b838110156111145780820151818401526020810190506110f9565b83811115611123576000848401525b50505050565b6000819050919050565b6000601f19601f830116905091905056fea365627a7a7231582014a08a723cf2455f1f85d1aa48f6442e795b41e21755c19e2a5feba33a19887d6c6578706572696d656e74616cf564736f6c63430005100040",
  "source": "pragma solidity >=0.4.21 <0.7.0;\npragma experimental ABIEncoderV2;\n \ncontract ClusterHeadNode{\n\n  struct ClusterNode {\n      \n      mapping(string => string[]) ordinarynodes;\n  }\n  mapping(string =>  mapping(string => string[])) clusternodes;\n\n  function addClusterNode(string memory  _basename , string memory _clustername) internal {\n      \n        clusternodes[_basename][_clustername];\n        \n    }\n    \n  function addOrdinayNode(string memory  _basename , string memory _clustername, string memory  _devicename)internal {\n      clusternodes[_basename][_clustername].push(_devicename);\n  }\n    \n  function getOrdinaynode(string memory _basename , string memory _clustername ) public view returns(string[] memory ){\n        return clusternodes[_basename][_clustername];\n    }\n    \n  function verifyOrdinayNode(string memory  _basename , string memory _clustername, string memory  _devicename) internal  returns(bool){\n        //pending\n        for(uint i=0 ; i<clusternodes[_basename][_clustername].length ;i++){\n            \n            log0(\n                bytes32(clusternodes[_basename][_clustername].length)\n                );\n            \n            if(keccak256(bytes(_devicename)) == keccak256(bytes(clusternodes[_basename][_clustername][i]))){\n                \n                log0(\n                    bytes32(\"true\")\n                    );\n            return true;\n            }\n        }\n        return false;\n    }\n    \n  function Request_of_Verify(string memory  _basename , string memory _clustername, string memory  _devicename)internal {\n      \n      if(verifyOrdinayNode(_basename , _clustername, _devicename) == true){\n          \n          log0(\n              bytes32(\"Device Alreay Exits\")\n              );\n          revert(\"Device Alreay Exits\");\n      }\n      \n      addOrdinayNode(_basename , _clustername, _devicename);\n      \n  }\n    \n}\n\n\ncontract BaseStation is ClusterHeadNode {\n\n  struct BaseStation {\n      \n    //   string name;\n      string[]  ClusterHeadNodes;\n  }\n  mapping(string => BaseStation) basestations;\n\n\n  string[] allbasestations;\n  \n  function addBaseStation(string memory _name) internal {\n        basestations[_name];\n        allbasestations.push(_name);\n        \n    }\n    \n    \n  function getBaseStations() public view returns(string[] memory){     \n      return allbasestations;\n  }\n    \n    \n  function verifyBaseStation(string memory _name) internal view returns(bool){\n        \n        for(uint i=0 ; i<allbasestations.length ;i++){\n            if(keccak256(bytes(_name)) == keccak256(bytes(allbasestations[i]))){\n            return true;\n            }\n        }\n        return false;\n    }\n    \n    \n  function verifyClusterNode(string memory  _basename , string memory _clustername) internal view returns(bool){\n        \n        if(verifyBaseStation(_basename) == true){\n            for(uint i=0 ; i<basestations[_basename].ClusterHeadNodes.length ;i++){\n                if(keccak256(bytes(_clustername)) == keccak256(bytes(basestations[_basename].ClusterHeadNodes[i]))){\n                   \n                    return true;\n                    \n                }\n            }\n            \n             return false;\n             \n        }else{\n            revert(\"basestations not exist\");\n        }\n    }\n    \n    \n  function getClusterNodes(string memory _name) public view returns(string[] memory ){\n        return basestations[_name].ClusterHeadNodes;\n    }\n\n    \n  function Request_of_Registration(string memory  _basename )public {\n      \n       if(verifyBaseStation(_basename) == true){\n           revert(\"BaseStation already exits\");\n      }\n      \n      addBaseStation(_basename);\n  }\n  \n  \n  function Request_of_Registration(string memory  _basename , string memory _clustername )public {\n      \n      if(verifyClusterNode(_basename , _clustername) == true){\n          revert(\"cluster node already exits\");\n          \n      }\n      basestations[_basename].ClusterHeadNodes.push(_clustername);\n      addClusterNode(_basename, _clustername);\n  }\n  \n  \n  function Request_of_Registration(string memory  _basename , string memory _clustername, string memory  _devicename)public {\n      \n      if(verifyClusterNode(_basename , _clustername) == true){\n           Request_of_Verify(_basename , _clustername, _devicename);\n      }\n     \n  }\n  \n    \n    //genrate public key and private key \n    \n    // hash device id\n\n}\n",
  "sourcePath": "D:/Blockchain/react-truffle/contracts/BaseStation.sol",
  "compiler": {
    "name": "solc",
    "version": "0.5.16+commit.9c3226ce.Emscripten.clang"
  },
  "schemaVersion": "3.3.4",
  "updatedAt": "2021-04-05T10:47:19.285Z",
  "networkType": "ethereum",
  "devdoc": {
    "methods": {}
  },
  "userdoc": {
    "methods": {}
  }
}