{
  "contractName": "BaseStation",
  "abi": [
    {
      "constant": true,
      "inputs": [
        {
          "internalType": "string",
          "name": "_basename",
          "type": "string"
        },
        {
          "internalType": "string",
          "name": "_clustername",
          "type": "string"
        }
      ],
      "name": "getOrdinaynode",
      "outputs": [
        {
          "internalType": "string[]",
          "name": "",
          "type": "string[]"
        }
      ],
      "payable": false,
      "stateMutability": "view",
      "type": "function"
    },
    {
      "constant": true,
      "inputs": [],
      "name": "getBaseStations",
      "outputs": [
        {
          "internalType": "string[]",
          "name": "",
          "type": "string[]"
        }
      ],
      "payable": false,
      "stateMutability": "view",
      "type": "function"
    },
    {
      "constant": true,
      "inputs": [
        {
          "internalType": "string",
          "name": "_name",
          "type": "string"
        }
      ],
      "name": "getClusterNodes",
      "outputs": [
        {
          "internalType": "string[]",
          "name": "",
          "type": "string[]"
        }
      ],
      "payable": false,
      "stateMutability": "view",
      "type": "function"
    },
    {
      "constant": false,
      "inputs": [
        {
          "internalType": "string",
          "name": "_basename",
          "type": "string"
        }
      ],
      "name": "Request_of_Registration",
      "outputs": [],
      "payable": false,
      "stateMutability": "nonpayable",
      "type": "function"
    },
    {
      "constant": false,
      "inputs": [
        {
          "internalType": "string",
          "name": "_basename",
          "type": "string"
        },
        {
          "internalType": "string",
          "name": "_clustername",
          "type": "string"
        },
        {
          "internalType": "string",
          "name": "_devicename",
          "type": "string"
        }
      ],
      "name": "Request_of_Registration",
      "outputs": [],
      "payable": false,
      "stateMutability": "nonpayable",
      "type": "function"
    },
    {
      "constant": false,
      "inputs": [
        {
          "internalType": "string",
          "name": "_basename",
          "type": "string"
        },
        {
          "internalType": "string",
          "name": "_clustername",
          "type": "string"
        }
      ],
      "name": "Request_of_Registration",
      "outputs": [],
      "payable": false,
      "stateMutability": "nonpayable",
      "type": "function"
    },
    {
      "constant": false,
      "inputs": [
        {
          "internalType": "string",
          "name": "_basename",
          "type": "string"
        },
        {
          "internalType": "string",
          "name": "_clustername",
          "type": "string"
        },
        {
          "internalType": "string",
          "name": "_devicename",
          "type": "string"
        },
        {
          "internalType": "string",
          "name": "_device2",
          "type": "string"
        }
      ],
      "name": "Request_of_Connection",
      "outputs": [
        {
          "internalType": "bool",
          "name": "",
          "type": "bool"
        }
      ],
      "payable": false,
      "stateMutability": "nonpayable",
      "type": "function"
    }
  ],
  "bytecode": "0x608060405234801561001057600080fd5b50611846806100206000396000f3fe608060405234801561001057600080fd5b506004361061007d5760003560e01c80635c12fefe1161005b5780635c12fefe146100ea5780637d56244b14610106578063931d018c14610124578063ee204008146101545761007d565b80632aa260ed146100825780634a35ab491461009e57806358587d94146100ce575b600080fd5b61009c60048036036100979190810190610f0d565b610184565b005b6100b860048036036100b39190810190610f4e565b6101e0565b6040516100c59190611569565b60405180910390f35b6100e860048036036100e39190810190610fba565b610304565b005b61010460048036036100ff9190810190610f4e565b6103f0565b005b61010e6104ad565b60405161011b9190611569565b60405180910390f35b61013e60048036036101399190810190610f0d565b610596565b60405161014b9190611569565b60405180910390f35b61016e60048036036101699190810190611051565b6106a0565b60405161017b919061158b565b60405180910390f35b60011515610191826107a6565b151514156101d4576040517f08c379a00000000000000000000000000000000000000000000000000000000081526004016101cb906115c6565b60405180910390fd5b6101dd81610817565b50565b60606000836040516101f2919061153b565b90815260200160405180910390208260405161020e919061153b565b9081526020016040518091039020805480602002602001604051908101604052809291908181526020016000905b828210156102f8578382906000526020600020018054600181600116156101000203166002900480601f0160208091040260200160405190810160405280929190818152602001828054600181600116156101000203166002900480156102e45780601f106102b9576101008083540402835291602001916102e4565b820191906000526020600020905b8154815290600101906020018083116102c757829003601f168201915b50505050508152602001906001019061023c565b50505050905092915050565b600115156103128484610878565b151514156103b057600115156103278261097c565b151514156103a0577f44657669636520416c726561792045786974730000000000000000000000000060405161035d9190611509565b60405180910390a06040517f08c379a000000000000000000000000000000000000000000000000000000000815260040161039790611626565b60405180910390fd5b6103ab838383610bea565b6103eb565b6040517f08c379a00000000000000000000000000000000000000000000000000000000081526004016103e290611646565b60405180910390fd5b505050565b600115156103fe8383610878565b15151415610441576040517f08c379a0000000000000000000000000000000000000000000000000000000008152600401610438906115a6565b60405180910390fd5b600182604051610451919061153b565b908152602001604051809103902060000181908060018154018082558091505090600182039060005260206000200160009091929091909150908051906020019061049d929190610e14565b50506104a98282610c66565b5050565b60606002805480602002602001604051908101604052809291908181526020016000905b8282101561058d578382906000526020600020018054600181600116156101000203166002900480601f0160208091040260200160405190810160405280929190818152602001828054600181600116156101000203166002900480156105795780601f1061054e57610100808354040283529160200191610579565b820191906000526020600020905b81548152906001019060200180831161055c57829003601f168201915b5050505050815260200190600101906104d1565b50505050905090565b60606001826040516105a8919061153b565b9081526020016040518091039020600001805480602002602001604051908101604052809291908181526020016000905b82821015610695578382906000526020600020018054600181600116156101000203166002900480601f0160208091040260200160405190810160405280929190818152602001828054600181600116156101000203166002900480156106815780601f1061065657610100808354040283529160200191610681565b820191906000526020600020905b81548152906001019060200180831161066457829003601f168201915b5050505050815260200190600101906105d9565b505050509050919050565b6000600115156106b08686610878565b1515141561079957600115156106c7868686610ca5565b1515141561075e57600115156106dc8361097c565b151514156106ed576001905061079e565b7f446576696365204e6f742045786974730000000000000000000000000000000060405161071b9190611509565b60405180910390a06040517f08c379a000000000000000000000000000000000000000000000000000000000815260040161075590611606565b60405180910390fd5b6040517f08c379a0000000000000000000000000000000000000000000000000000000008152600401610790906115e6565b60405180910390fd5b600090505b949350505050565b600080600090505b60028054905081101561080c57600281815481106107c857fe5b906000526020600020016040516107df9190611524565b6040518091039020838051906020012014156107ff576001915050610812565b80806001019150506107ae565b50600090505b919050565b600181604051610827919061153b565b9081526020016040518091039020506002819080600181540180825580915050906001820390600052602060002001600090919290919091509080519060200190610873929190610e14565b505050565b600060011515610887846107a6565b1515141561093b5760008090505b6001846040516108a5919061153b565b908152602001604051809103902060000180549050811015610931576001846040516108d1919061153b565b908152602001604051809103902060000181815481106108ed57fe5b906000526020600020016040516109049190611524565b604051809103902083805190602001201415610924576001915050610976565b8080600101915050610895565b5060009050610976565b6040517f08c379a000000000000000000000000000000000000000000000000000000000815260040161096d90611666565b60405180910390fd5b92915050565b600080600090505b600280549050811015610bdf5760008090505b6001600283815481106109a657fe5b906000526020600020016040516109bd9190611552565b908152602001604051809103902060000180549050811015610bd15760011515610b7b600284815481106109ed57fe5b906000526020600020018054600181600116156101000203166002900480601f016020809104026020016040519081016040528092919081815260200182805460018160011615610100020316600290048015610a8b5780601f10610a6057610100808354040283529160200191610a8b565b820191906000526020600020905b815481529060010190602001808311610a6e57829003601f168201915b5050505050600160028681548110610a9f57fe5b90600052602060002001604051610ab69190611552565b90815260200160405180910390206000018481548110610ad257fe5b906000526020600020018054600181600116156101000203166002900480601f016020809104026020016040519081016040528092919081815260200182805460018160011615610100020316600290048015610b705780601f10610b4557610100808354040283529160200191610b70565b820191906000526020600020905b815481529060010190602001808311610b5357829003601f168201915b505050505087610ca5565b15151415610bc4577f7472756500000000000000000000000000000000000000000000000000000000604051610bb19190611509565b60405180910390a0600192505050610be5565b8080600101915050610997565b508080600101915050610984565b50600090505b919050565b600083604051610bfa919061153b565b908152602001604051809103902082604051610c16919061153b565b9081526020016040518091039020819080600181540180825580915050906001820390600052602060002001600090919290919091509080519060200190610c5f929190610e14565b5050505050565b600082604051610c76919061153b565b908152602001604051809103902081604051610c92919061153b565b9081526020016040518091039020505050565b600080600090505b600085604051610cbd919061153b565b908152602001604051809103902084604051610cd9919061153b565b908152602001604051809103902080549050811015610e0757600085604051610d02919061153b565b908152602001604051809103902084604051610d1e919061153b565b90815260200160405180910390208054905060001b604051610d409190611509565b60405180910390a0600085604051610d58919061153b565b908152602001604051809103902084604051610d74919061153b565b90815260200160405180910390208181548110610d8d57fe5b90600052602060002001604051610da49190611524565b604051809103902083805190602001201415610dfa577f7472756500000000000000000000000000000000000000000000000000000000604051610de89190611509565b60405180910390a06001915050610e0d565b8080600101915050610cad565b50600090505b9392505050565b828054600181600116156101000203166002900490600052602060002090601f016020900481019282601f10610e5557805160ff1916838001178555610e83565b82800160010185558215610e83579182015b82811115610e82578251825591602001919060010190610e67565b5b509050610e909190610e94565b5090565b610eb691905b80821115610eb2576000816000905550600101610e9a565b5090565b90565b600082601f830112610eca57600080fd5b8135610edd610ed8826116b3565b611686565b91508082526020830160208301858383011115610ef957600080fd5b610f048382846117a6565b50505092915050565b600060208284031215610f1f57600080fd5b600082013567ffffffffffffffff811115610f3957600080fd5b610f4584828501610eb9565b91505092915050565b60008060408385031215610f6157600080fd5b600083013567ffffffffffffffff811115610f7b57600080fd5b610f8785828601610eb9565b925050602083013567ffffffffffffffff811115610fa457600080fd5b610fb085828601610eb9565b9150509250929050565b600080600060608486031215610fcf57600080fd5b600084013567ffffffffffffffff811115610fe957600080fd5b610ff586828701610eb9565b935050602084013567ffffffffffffffff81111561101257600080fd5b61101e86828701610eb9565b925050604084013567ffffffffffffffff81111561103b57600080fd5b61104786828701610eb9565b9150509250925092565b6000806000806080858703121561106757600080fd5b600085013567ffffffffffffffff81111561108157600080fd5b61108d87828801610eb9565b945050602085013567ffffffffffffffff8111156110aa57600080fd5b6110b687828801610eb9565b935050604085013567ffffffffffffffff8111156110d357600080fd5b6110df87828801610eb9565b925050606085013567ffffffffffffffff8111156110fc57600080fd5b61110887828801610eb9565b91505092959194509250565b60006111208383611282565b905092915050565b600061113382611719565b61113d8185611747565b93508360208202850161114f856116df565b8060005b8581101561118b578484038952815161116c8582611114565b94506111778361173a565b925060208a01995050600181019050611153565b50829750879550505050505092915050565b6111a681611790565b82525050565b6111bd6111b88261179c565b6117e8565b82525050565b6000815460018116600081146111e0576001811461120557611249565b607f60028304166111f18187611758565b955060ff1983168652808601935050611249565b600282046112138187611758565b955061121e856116ef565b60005b8281101561124057815481890152600182019150602081019050611221565b82880195505050505b505092915050565b600061125c8261172f565b6112668185611785565b93506112768185602086016117b5565b80840191505092915050565b600061128d82611724565b6112978185611763565b93506112a78185602086016117b5565b6112b0816117f2565b840191505092915050565b6000815460018116600081146112d857600181146112fd57611341565b607f60028304166112e98187611785565b955060ff1983168652808601935050611341565b6002820461130b8187611785565b955061131685611704565b60005b8281101561133857815481890152600182019150602081019050611319565b82880195505050505b505092915050565b6000611356601a83611774565b91507f636c7573746572206e6f646520616c72656164792065786974730000000000006000830152602082019050919050565b6000611396601983611774565b91507f4261736553746174696f6e20616c7265616479206578697473000000000000006000830152602082019050919050565b60006113d6601a83611774565b91507f496e76616c696420436f6e6e656374696f6e20526571756573740000000000006000830152602082019050919050565b6000611416600e83611774565b91507f496e76616c6964206465766963650000000000000000000000000000000000006000830152602082019050919050565b6000611456601383611774565b91507f44657669636520416c72656179204578697473000000000000000000000000006000830152602082019050919050565b6000611496601f83611774565b91507f496e76616c696420526571756573745f6f665f526567697374726174696f6e006000830152602082019050919050565b60006114d6601683611774565b91507f6261736573746174696f6e73206e6f74206578697374000000000000000000006000830152602082019050919050565b600061151582846111ac565b60208201915081905092915050565b600061153082846111c3565b915081905092915050565b60006115478284611251565b915081905092915050565b600061155e82846112bb565b915081905092915050565b600060208201905081810360008301526115838184611128565b905092915050565b60006020820190506115a0600083018461119d565b92915050565b600060208201905081810360008301526115bf81611349565b9050919050565b600060208201905081810360008301526115df81611389565b9050919050565b600060208201905081810360008301526115ff816113c9565b9050919050565b6000602082019050818103600083015261161f81611409565b9050919050565b6000602082019050818103600083015261163f81611449565b9050919050565b6000602082019050818103600083015261165f81611489565b9050919050565b6000602082019050818103600083015261167f816114c9565b9050919050565b6000604051905081810181811067ffffffffffffffff821117156116a957600080fd5b8060405250919050565b600067ffffffffffffffff8211156116ca57600080fd5b601f19601f8301169050602081019050919050565b6000819050602082019050919050565b60008190508160005260206000209050919050565b60008190508160005260206000209050919050565b600081519050919050565b600081519050919050565b600081519050919050565b6000602082019050919050565b600082825260208201905092915050565b600081905092915050565b600082825260208201905092915050565b600082825260208201905092915050565b600081905092915050565b60008115159050919050565b6000819050919050565b82818337600083830152505050565b60005b838110156117d35780820151818401526020810190506117b8565b838111156117e2576000848401525b50505050565b6000819050919050565b6000601f19601f830116905091905056fea365627a7a72315820a194236093e6f02fac69b1f6223ca3523ebc4c3db389542b13e9d005e23b51526c6578706572696d656e74616cf564736f6c63430005100040",
  "source": "pragma solidity >=0.4.21 <0.7.0;\r\npragma experimental ABIEncoderV2;\r\n \r\ncontract ClusterHeadNode{\r\n\r\n    struct ClusterNode {\r\n  \r\n        mapping(string => string[]) ordinarynodes;\r\n    }\r\n  \r\n    mapping(string =>  mapping(string => string[])) clusternodes;\r\n    \r\n    \r\n\r\n    function addClusterNode(string memory  _basename , string memory _clustername) internal {\r\n  \r\n        clusternodes[_basename][_clustername];\r\n    \r\n    }\r\n\r\n\r\n    function addOrdinayNode(string memory  _basename , string memory _clustername, string memory  _devicename)internal {\r\n        \r\n        clusternodes[_basename][_clustername].push(_devicename);\r\n    }\r\n\r\n\r\n    function getOrdinaynode(string memory _basename , string memory _clustername ) public view returns(string[] memory ){\r\n        \r\n        return clusternodes[_basename][_clustername];\r\n    }\r\n\r\n\r\n    function verifyOrdinayNode(string memory  _basename , string memory _clustername, string memory  _devicename) internal  returns(bool){\r\n        //pending\r\n        for(uint i=0 ; i<clusternodes[_basename][_clustername].length ;i++){\r\n\r\n            log0(\r\n                bytes32(clusternodes[_basename][_clustername].length)\r\n            );\r\n\r\n            if(keccak256(bytes(_devicename)) == keccak256(bytes(clusternodes[_basename][_clustername][i]))){\r\n\r\n                log0(\r\n                    bytes32(\"true\")\r\n                );\r\n                return true;\r\n            }\r\n            \r\n        }\r\n        \r\n        return false;\r\n    }\r\n    \r\n    \r\n    function Request_of_Verify(string memory  _basename , string memory _clustername, string memory  _devicename)internal {\r\n\r\n        if(verifyOrdinayNode(_basename , _clustername, _devicename) == true){\r\n\r\n            log0(\r\n                bytes32(\"Device Alreay Exits\")\r\n            );\r\n            revert(\"Device Alreay Exits\");\r\n        }\r\n\r\n        addOrdinayNode(_basename , _clustername, _devicename);\r\n\r\n    }\r\n        \r\n        \r\n        \r\n\r\n}\r\n\r\n\r\ncontract BaseStation is ClusterHeadNode {\r\n\r\n    struct BaseStation {\r\n\r\n        // string name;\r\n        string[]  ClusterHeadNodes;\r\n    }\r\n    \r\n    mapping(string => BaseStation) basestations;\r\n\r\n    string[] allbasestations;\r\n    \r\n    \r\n  \r\n    function addBaseStation(string memory _name) internal {\r\n    \r\n        basestations[_name];\r\n        allbasestations.push(_name);\r\n    }\r\n    \r\n    \r\n    function verifyBaseStation(string memory _name) internal view returns(bool){\r\n\r\n        for(uint i=0 ; i<allbasestations.length ;i++){\r\n            \r\n            if(keccak256(bytes(_name)) == keccak256(bytes(allbasestations[i]))){\r\n                return true;\r\n            }\r\n        }\r\n        \r\n        return false;\r\n    }\r\n\r\n\r\n    function verifyClusterNode(string memory  _basename , string memory _clustername) internal view returns(bool){\r\n\r\n        if(verifyBaseStation(_basename) == true){\r\n            \r\n            for(uint i=0 ; i<basestations[_basename].ClusterHeadNodes.length ;i++){\r\n                \r\n                if(keccak256(bytes(_clustername)) == keccak256(bytes(basestations[_basename].ClusterHeadNodes[i]))){\r\n\r\n                    return true;\r\n                }\r\n            }\r\n\r\n            return false;\r\n\r\n        }else{\r\n            \r\n            revert(\"basestations not exist\");\r\n        }\r\n        \r\n        \r\n    }\r\n\r\n    \r\n    function Request_of_verifyOrdinayNodes(string memory _devicename) internal returns (bool ){\r\n\r\n        for(uint sid=0 ;sid<allbasestations.length;sid++){\r\n\r\n            for(uint cid=0; cid<basestations[allbasestations[sid]].ClusterHeadNodes.length ; cid++){\r\n                \r\n                // bytes32  sidname = bytes32(allbasestations[sid]);\r\n                // bytes32  cidname = bytes32(basestations[allbasestations[sid]].ClusterHeadNodes[cid]);\r\n                \r\n                // log1(\r\n                //     bytes32(sidname),\r\n                //     bytes32(cidname)\r\n                //     );\r\n\r\n                if( verifyOrdinayNode(allbasestations[sid] , basestations[allbasestations[sid]].ClusterHeadNodes[cid] , _devicename) == true){\r\n                    \r\n                    log0(\r\n                        bytes32(\"true\")\r\n                        );\r\n  \r\n                    return true;\r\n  \r\n                }\r\n                \r\n            }\r\n\r\n        }\r\n        \r\n        return false;\r\n    }\r\n    \r\n    \r\n    function getBaseStations() public view returns(string[] memory){     \r\n        \r\n        return allbasestations;\r\n    }\r\n  \r\n  \r\n    function getClusterNodes(string memory _name) public view returns(string[] memory ){\r\n        \r\n        return basestations[_name].ClusterHeadNodes;\r\n    }\r\n\r\n    \r\n    function Request_of_Registration(string memory  _basename )public {\r\n    \r\n        if(verifyBaseStation(_basename) == true){\r\n            \r\n            revert(\"BaseStation already exits\");\r\n        }\r\n        \r\n        addBaseStation(_basename);\r\n    }\r\n  \r\n  \r\n    function Request_of_Registration(string memory  _basename , string memory _clustername )public {\r\n    \r\n        if(verifyClusterNode(_basename , _clustername) == true){\r\n            \r\n            revert(\"cluster node already exits\");\r\n        }\r\n        \r\n        basestations[_basename].ClusterHeadNodes.push(_clustername);\r\n        \r\n        addClusterNode(_basename, _clustername);\r\n        \r\n        \r\n    }\r\n  \r\n  \r\n    function Request_of_Registration(string memory  _basename , string memory _clustername, string memory  _devicename)public {\r\n    \r\n        if(verifyClusterNode(_basename , _clustername) == true){\r\n            \r\n            if( Request_of_verifyOrdinayNodes(_devicename) == true ){\r\n                \r\n                log0(\r\n                    bytes32(\"Device Alreay Exits\")\r\n                );\r\n                \r\n                revert(\"Device Alreay Exits\");\r\n            }\r\n            \r\n            addOrdinayNode(_basename , _clustername, _devicename);\r\n        \r\n        }else{\r\n            revert(\"Invalid Request_of_Registration\");\r\n        }\r\n        \r\n    \r\n    }\r\n\r\n    \r\n    function Request_of_Connection(string memory  _basename , string memory _clustername, string memory  _devicename , string memory _device2 )public returns(bool){\r\n    \r\n        if(verifyClusterNode(_basename , _clustername) == true){\r\n            \r\n            if( verifyOrdinayNode(_basename , _clustername , _devicename ) == true ){\r\n                \r\n                if( Request_of_verifyOrdinayNodes(_device2) == true){\r\n                    \r\n                    return true;\r\n                    \r\n                }else{\r\n                    \r\n                    log0(\r\n                        bytes32(\"Device Not Exits\")\r\n                    );\r\n                    \r\n                    revert(\"Invalid device\");\r\n                    return false;\r\n                }\r\n                \r\n            }else{\r\n                \r\n               \r\n                revert(\"Invalid Connection Request\");\r\n                 return false;\r\n            }\r\n                \r\n        }else{\r\n                \r\n            \r\n            return false;\r\n            revert(\"Invalid Connection  Request\");\r\n            \r\n        }\r\n        \r\n    }\r\n    \r\n    \r\n    \r\n}\r\n",
  "sourcePath": "D:/Blockchain/react-truffle/contracts/BaseStation.sol",
  "compiler": {
    "name": "solc",
    "version": "0.5.16+commit.9c3226ce.Emscripten.clang"
  },
  "schemaVersion": "3.3.4",
  "updatedAt": "2021-05-15T08:02:34.005Z",
  "networkType": "ethereum",
  "devdoc": {
    "methods": {}
  },
  "userdoc": {
    "methods": {}
  }
}