{
  "contractName": "ClusterHeadNode",
  "abi": [
    {
      "constant": false,
      "inputs": [
        {
          "internalType": "string",
          "name": "_basename",
          "type": "string"
        },
        {
          "internalType": "string",
          "name": "_clustername",
          "type": "string"
        },
        {
          "internalType": "string",
          "name": "_devicename",
          "type": "string"
        }
      ],
      "name": "addOrdinayNode",
      "outputs": [],
      "payable": false,
      "stateMutability": "nonpayable",
      "type": "function"
    },
    {
      "constant": false,
      "inputs": [
        {
          "internalType": "string",
          "name": "_name",
          "type": "string"
        },
        {
          "internalType": "string",
          "name": "_clustername",
          "type": "string"
        }
      ],
      "name": "getOrdinaynode",
      "outputs": [
        {
          "internalType": "string[]",
          "name": "",
          "type": "string[]"
        }
      ],
      "payable": false,
      "stateMutability": "nonpayable",
      "type": "function"
    }
  ],
  "bytecode": "0x608060405234801561001057600080fd5b506106a9806100206000396000f3fe608060405234801561001057600080fd5b50600436106100365760003560e01c80634a35ab491461003b578063da26e7e31461006b575b600080fd5b61005560048036036100509190810190610320565b610087565b604051610062919061052d565b60405180910390f35b6100856004803603610080919081019061038c565b6101ab565b005b60606000836040516100999190610516565b9081526020016040518091039020826040516100b59190610516565b9081526020016040518091039020805480602002602001604051908101604052809291908181526020016000905b8282101561019f578382906000526020600020018054600181600116156101000203166002900480601f01602080910402602001604051908101604052809291908181526020018280546001816001161561010002031660029004801561018b5780601f106101605761010080835404028352916020019161018b565b820191906000526020600020905b81548152906001019060200180831161016e57829003601f168201915b5050505050815260200190600101906100e3565b50505050905092915050565b6000836040516101bb9190610516565b9081526020016040518091039020826040516101d79190610516565b9081526020016040518091039020819080600181540180825580915050906001820390600052602060002001600090919290919091509080519060200190610220929190610227565b5050505050565b828054600181600116156101000203166002900490600052602060002090601f016020900481019282601f1061026857805160ff1916838001178555610296565b82800160010185558215610296579182015b8281111561029557825182559160200191906001019061027a565b5b5090506102a391906102a7565b5090565b6102c991905b808211156102c55760008160009055506001016102ad565b5090565b90565b600082601f8301126102dd57600080fd5b81356102f06102eb8261057c565b61054f565b9150808252602083016020830185838301111561030c57600080fd5b610317838284610613565b50505092915050565b6000806040838503121561033357600080fd5b600083013567ffffffffffffffff81111561034d57600080fd5b610359858286016102cc565b925050602083013567ffffffffffffffff81111561037657600080fd5b610382858286016102cc565b9150509250929050565b6000806000606084860312156103a157600080fd5b600084013567ffffffffffffffff8111156103bb57600080fd5b6103c7868287016102cc565b935050602084013567ffffffffffffffff8111156103e457600080fd5b6103f0868287016102cc565b925050604084013567ffffffffffffffff81111561040d57600080fd5b610419868287016102cc565b9150509250925092565b600061042f83836104dd565b905092915050565b6000610442826105b8565b61044c81856105e6565b93508360208202850161045e856105a8565b8060005b8581101561049a578484038952815161047b8582610423565b9450610486836105d9565b925060208a01995050600181019050610462565b50829750879550505050505092915050565b60006104b7826105ce565b6104c18185610608565b93506104d1818560208601610622565b80840191505092915050565b60006104e8826105c3565b6104f281856105f7565b9350610502818560208601610622565b61050b81610655565b840191505092915050565b600061052282846104ac565b915081905092915050565b600060208201905081810360008301526105478184610437565b905092915050565b6000604051905081810181811067ffffffffffffffff8211171561057257600080fd5b8060405250919050565b600067ffffffffffffffff82111561059357600080fd5b601f19601f8301169050602081019050919050565b6000819050602082019050919050565b600081519050919050565b600081519050919050565b600081519050919050565b6000602082019050919050565b600082825260208201905092915050565b600082825260208201905092915050565b600081905092915050565b82818337600083830152505050565b60005b83811015610640578082015181840152602081019050610625565b8381111561064f576000848401525b50505050565b6000601f19601f830116905091905056fea365627a7a72315820a8b480a4aadbd4e12215458589faec93544a1b2320436f1706f60af93280c7786c6578706572696d656e74616cf564736f6c63430005100040",
  "source": "pragma solidity >=0.4.21 <0.7.0;\npragma experimental ABIEncoderV2;\n\n  \ncontract ClusterHeadNode {\n\n  struct ClusterNode {\n      \n      mapping(string => string[]) ordinarynodes;\n  }\n  mapping(string =>  mapping(string => string[])) clusternodes;\n\n\n\n  function addClusterNode(string memory  _basename , string memory _clustername) internal {\n      \n        clusternodes[_basename][_clustername];\n        \n    }\n    \n\n  function addOrdinayNode(string memory  _basename , string memory _clustername, string memory  _devicename)public {\n      clusternodes[_basename][_clustername].push(_devicename);\n  }\n    \n    function getOrdinaynode(string memory _name , string memory _clustername ) public returns(string[] memory ){\n        return clusternodes[_name][_clustername];\n    }\n    \n    \n\n}\n\n\n\ncontract BaseStation is ClusterHeadNode {\n\n  struct BaseStation {\n      \n    //   string name;\n      string[] ClusterHeadNodes;\n  }\n  mapping(string => BaseStation) basestations;\n\n\n  string[] allbasestations;\n  \n  function addBaseStation(string memory _name) public {\n        basestations[_name];\n        allbasestations.push(_name);\n        \n    }\n    \n    function getBaseStations() public view returns(string[] memory){     \n        return allbasestations;\n    }\n    \n    function verifyBaseStation(string memory _name) internal returns(bool){\n        \n        for(uint i=0 ; i<allbasestations.length ;i++){\n            if(keccak256(bytes(_name)) == keccak256(bytes(allbasestations[i]))){\n            return true;\n            }\n        }\n        return false;\n    }\n    function verifyClusterNode(string memory  _basename , string memory _clustername) public {\n        \n        if(verifyBaseStation(_basename) == true){\n            for(uint i=0 ; i<basestations[_basename].ClusterHeadNodes.length ;i++){\n                if(keccak256(bytes(_clustername)) == keccak256(bytes(basestations[_basename].ClusterHeadNodes[i]))){\n                    // return basestations[_basename].ClusterHeadNodes[i];\n                    revert(\"cluster node already exits\");\n                }\n            }\n             basestations[_basename].ClusterHeadNodes.push(_clustername);\n             addClusterNode(_basename, _clustername);\n        }else{\n            revert(\"basestations not exist\");\n        }\n    }\n    \n    function getClusterNodes(string memory _name) public returns(string[] memory ){\n        return basestations[_name].ClusterHeadNodes;\n    }\n    \n\n}\n\n",
  "sourcePath": "D:/Blockchain/react-truffle/contracts/BaseStation.sol",
  "compiler": {
    "name": "solc",
    "version": "0.5.16+commit.9c3226ce.Emscripten.clang"
  },
  "schemaVersion": "3.3.4",
  "updatedAt": "2021-04-03T08:42:02.990Z",
  "devdoc": {
    "methods": {}
  },
  "userdoc": {
    "methods": {}
  }
}