{
  "contractName": "ClusterHeadNode",
  "abi": [
    {
      "constant": true,
      "inputs": [
        {
          "internalType": "string",
          "name": "_basename",
          "type": "string"
        },
        {
          "internalType": "string",
          "name": "_clustername",
          "type": "string"
        }
      ],
      "name": "getOrdinaynode",
      "outputs": [
        {
          "internalType": "string[]",
          "name": "",
          "type": "string[]"
        }
      ],
      "payable": false,
      "stateMutability": "view",
      "type": "function"
    }
  ],
  "bytecode": "0x608060405234801561001057600080fd5b506104ca806100206000396000f3fe608060405234801561001057600080fd5b506004361061002b5760003560e01c80634a35ab4914610030575b600080fd5b61004a600480360361004591908101906101d8565b610060565b604051610057919061034e565b60405180910390f35b60606000836040516100729190610337565b90815260200160405180910390208260405161008e9190610337565b9081526020016040518091039020805480602002602001604051908101604052809291908181526020016000905b82821015610178578382906000526020600020018054600181600116156101000203166002900480601f0160208091040260200160405190810160405280929190818152602001828054600181600116156101000203166002900480156101645780601f1061013957610100808354040283529160200191610164565b820191906000526020600020905b81548152906001019060200180831161014757829003601f168201915b5050505050815260200190600101906100bc565b50505050905092915050565b600082601f83011261019557600080fd5b81356101a86101a38261039d565b610370565b915080825260208301602083018583830111156101c457600080fd5b6101cf838284610434565b50505092915050565b600080604083850312156101eb57600080fd5b600083013567ffffffffffffffff81111561020557600080fd5b61021185828601610184565b925050602083013567ffffffffffffffff81111561022e57600080fd5b61023a85828601610184565b9150509250929050565b600061025083836102fe565b905092915050565b6000610263826103d9565b61026d8185610407565b93508360208202850161027f856103c9565b8060005b858110156102bb578484038952815161029c8582610244565b94506102a7836103fa565b925060208a01995050600181019050610283565b50829750879550505050505092915050565b60006102d8826103ef565b6102e28185610429565b93506102f2818560208601610443565b80840191505092915050565b6000610309826103e4565b6103138185610418565b9350610323818560208601610443565b61032c81610476565b840191505092915050565b600061034382846102cd565b915081905092915050565b600060208201905081810360008301526103688184610258565b905092915050565b6000604051905081810181811067ffffffffffffffff8211171561039357600080fd5b8060405250919050565b600067ffffffffffffffff8211156103b457600080fd5b601f19601f8301169050602081019050919050565b6000819050602082019050919050565b600081519050919050565b600081519050919050565b600081519050919050565b6000602082019050919050565b600082825260208201905092915050565b600082825260208201905092915050565b600081905092915050565b82818337600083830152505050565b60005b83811015610461578082015181840152602081019050610446565b83811115610470576000848401525b50505050565b6000601f19601f830116905091905056fea365627a7a7231582031a4aedb1f5ea6261cfefbec7505bb7c34fb03b7d7654410f2c3c388545dad016c6578706572696d656e74616cf564736f6c63430005100040",
  "source": "pragma solidity >=0.4.21 <0.7.0;\npragma experimental ABIEncoderV2;\n \ncontract ClusterHeadNode{\n\n  struct ClusterNode {\n      \n      mapping(string => string[]) ordinarynodes;\n  }\n  mapping(string =>  mapping(string => string[])) clusternodes;\n\n  function addClusterNode(string memory  _basename , string memory _clustername) internal {\n      \n        clusternodes[_basename][_clustername];\n        \n    }\n    \n  function addOrdinayNode(string memory  _basename , string memory _clustername, string memory  _devicename)internal {\n      clusternodes[_basename][_clustername].push(_devicename);\n  }\n    \n  function getOrdinaynode(string memory _basename , string memory _clustername ) public view returns(string[] memory ){\n        return clusternodes[_basename][_clustername];\n    }\n    \n  function verifyOrdinayNode(string memory  _basename , string memory _clustername, string memory  _devicename) internal  returns(bool){\n        //pending\n        for(uint i=0 ; i<clusternodes[_basename][_clustername].length ;i++){\n            \n            log0(\n                bytes32(clusternodes[_basename][_clustername].length)\n                );\n            \n            if(keccak256(bytes(_devicename)) == keccak256(bytes(clusternodes[_basename][_clustername][i]))){\n                \n                log0(\n                    bytes32(\"true\")\n                    );\n            return true;\n            }\n        }\n        return false;\n    }\n    \n  function Request_of_Verify(string memory  _basename , string memory _clustername, string memory  _devicename)internal {\n      \n      if(verifyOrdinayNode(_basename , _clustername, _devicename) == true){\n          \n          log0(\n              bytes32(\"Device Alreay Exits\")\n              );\n          revert(\"Device Alreay Exits\");\n      }\n      \n      addOrdinayNode(_basename , _clustername, _devicename);\n      \n  }\n    \n}\n\n\ncontract BaseStation is ClusterHeadNode {\n\n  struct BaseStation {\n      \n    //   string name;\n      string[]  ClusterHeadNodes;\n  }\n  mapping(string => BaseStation) basestations;\n\n\n  string[] allbasestations;\n  \n  function addBaseStation(string memory _name) internal {\n        basestations[_name];\n        allbasestations.push(_name);\n        \n    }\n    \n    \n  function getBaseStations() public view returns(string[] memory){     \n      return allbasestations;\n  }\n    \n    \n  function verifyBaseStation(string memory _name) internal view returns(bool){\n        \n        for(uint i=0 ; i<allbasestations.length ;i++){\n            if(keccak256(bytes(_name)) == keccak256(bytes(allbasestations[i]))){\n            return true;\n            }\n        }\n        return false;\n    }\n    \n    \n  function verifyClusterNode(string memory  _basename , string memory _clustername) internal view returns(bool){\n        \n        if(verifyBaseStation(_basename) == true){\n            for(uint i=0 ; i<basestations[_basename].ClusterHeadNodes.length ;i++){\n                if(keccak256(bytes(_clustername)) == keccak256(bytes(basestations[_basename].ClusterHeadNodes[i]))){\n                   \n                    return true;\n                    \n                }\n            }\n            \n             return false;\n             \n        }else{\n            revert(\"basestations not exist\");\n        }\n    }\n    \n    \n  function getClusterNodes(string memory _name) public view returns(string[] memory ){\n        return basestations[_name].ClusterHeadNodes;\n    }\n\n    \n  function Request_of_Registration(string memory  _basename )public {\n      \n       if(verifyBaseStation(_basename) == true){\n           revert(\"BaseStation already exits\");\n      }\n      \n      addBaseStation(_basename);\n  }\n  \n  \n  function Request_of_Registration(string memory  _basename , string memory _clustername )public {\n      \n      if(verifyClusterNode(_basename , _clustername) == true){\n          revert(\"cluster node already exits\");\n          \n      }\n      basestations[_basename].ClusterHeadNodes.push(_clustername);\n      addClusterNode(_basename, _clustername);\n  }\n  \n  \n  function Request_of_Registration(string memory  _basename , string memory _clustername, string memory  _devicename)public {\n      \n      if(verifyClusterNode(_basename , _clustername) == true){\n           Request_of_Verify(_basename , _clustername, _devicename);\n      }\n     \n  }\n  \n    \n    //genrate public key and private key \n    \n    // hash device id\n\n}\n",
  "sourcePath": "D:/Blockchain/react-truffle/contracts/BaseStation.sol",
  "compiler": {
    "name": "solc",
    "version": "0.5.16+commit.9c3226ce.Emscripten.clang"
  },
  "schemaVersion": "3.3.4",
  "updatedAt": "2021-04-05T10:47:16.550Z",
  "devdoc": {
    "methods": {}
  },
  "userdoc": {
    "methods": {}
  }
}