{
  "contractName": "ClusterHeadNode",
  "abi": [
    {
      "constant": false,
      "inputs": [],
      "name": "addClusterNode",
      "outputs": [],
      "payable": false,
      "stateMutability": "nonpayable",
      "type": "function"
    },
    {
      "constant": true,
      "inputs": [
        {
          "internalType": "string",
          "name": "_name",
          "type": "string"
        }
      ],
      "name": "getClusterNodes",
      "outputs": [
        {
          "internalType": "string[]",
          "name": "",
          "type": "string[]"
        }
      ],
      "payable": false,
      "stateMutability": "view",
      "type": "function"
    }
  ],
  "bytecode": "0x608060405234801561001057600080fd5b50610499806100206000396000f3fe608060405234801561001057600080fd5b50600436106100365760003560e01c806327a22f7d1461003b578063931d018c14610045575b600080fd5b610043610075565b005b61005f600480360361005a91908101906101d2565b610077565b60405161006c919061031d565b60405180910390f35b565b60606000826040516100899190610306565b9081526020016040518091039020805480602002602001604051908101604052809291908181526020016000905b82821015610173578382906000526020600020018054600181600116156101000203166002900480601f01602080910402602001604051908101604052809291908181526020018280546001816001161561010002031660029004801561015f5780601f106101345761010080835404028352916020019161015f565b820191906000526020600020905b81548152906001019060200180831161014257829003601f168201915b5050505050815260200190600101906100b7565b505050509050919050565b600082601f83011261018f57600080fd5b81356101a261019d8261036c565b61033f565b915080825260208301602083018583830111156101be57600080fd5b6101c9838284610403565b50505092915050565b6000602082840312156101e457600080fd5b600082013567ffffffffffffffff8111156101fe57600080fd5b61020a8482850161017e565b91505092915050565b600061021f83836102cd565b905092915050565b6000610232826103a8565b61023c81856103d6565b93508360208202850161024e85610398565b8060005b8581101561028a578484038952815161026b8582610213565b9450610276836103c9565b925060208a01995050600181019050610252565b50829750879550505050505092915050565b60006102a7826103be565b6102b181856103f8565b93506102c1818560208601610412565b80840191505092915050565b60006102d8826103b3565b6102e281856103e7565b93506102f2818560208601610412565b6102fb81610445565b840191505092915050565b6000610312828461029c565b915081905092915050565b600060208201905081810360008301526103378184610227565b905092915050565b6000604051905081810181811067ffffffffffffffff8211171561036257600080fd5b8060405250919050565b600067ffffffffffffffff82111561038357600080fd5b601f19601f8301169050602081019050919050565b6000819050602082019050919050565b600081519050919050565b600081519050919050565b600081519050919050565b6000602082019050919050565b600082825260208201905092915050565b600082825260208201905092915050565b600081905092915050565b82818337600083830152505050565b60005b83811015610430578082015181840152602081019050610415565b8381111561043f576000848401525b50505050565b6000601f19601f830116905091905056fea365627a7a723158209f16f24829d9d44004a67b0cf095322e9edc538b4642a03d44b069a5d5e9585c6c6578706572696d656e74616cf564736f6c63430005100040",
  "source": "// SPDX-License-Identifier: MIT\npragma solidity >=0.4.21 <0.7.0;\npragma experimental ABIEncoderV2;\n\n\ncontract ClusterHeadNode {\n\n  \n  mapping(string => string[]) headnodes;\n\n  function addClusterNode() public {\n      \n        // headnodes[] ;\n        \n    }\n    \n    function getClusterNodes(string memory _name) public view returns(string[] memory){\n        return headnodes[_name];\n    }\n\n}\n\ncontract BaseStations is ClusterHeadNode {\n\n  struct BaseStation {\n      \n    //   string name;\n      string[] ClusterHeadNodes;\n  }\n  mapping(string => BaseStation) basestations;\n\n  string[] allbasestations;\n  \n  function addBaseStation(string memory _name) public {\n        basestations[_name].ClusterHeadNodes.push('ch1');\n        allbasestations.push(_name);\n        \n    }\n    \n    function getBaseStations() public view returns(string[] memory){     \n        return allbasestations;\n    }\n    \n    function verifyBaseStation(string memory _name) internal returns(bool){\n        \n        for(uint i=0 ; i<allbasestations.length ;i++){\n            if(keccak256(bytes(_name)) == keccak256(bytes(allbasestations[i]))){\n            return true;\n            }\n        }\n        return false;\n    }\n    function verifyClusterNode(string memory  _basename , string memory _clustername) public {\n        \n        if(verifyBaseStation(_basename) == true){\n            for(uint i=0 ; i<basestations[_basename].ClusterHeadNodes.length ;i++){\n                if(keccak256(bytes(_clustername)) == keccak256(bytes(basestations[_basename].ClusterHeadNodes[i]))){\n                    // return basestations[_basename].ClusterHeadNodes[i];\n                    revert(\"cluster node already exits\");\n                }\n            }\n             basestations[_basename].ClusterHeadNodes.push(_clustername);\n        }else{\n            revert(\"basestations not exist\");\n        }\n    }\n\n}\n\ncontract SimpleStorage is BaseStations {\n  uint storedData;\n  uint[] public arr = [20,30,40];\n\n  function addvalue(uint x) public{\n    arr.push(x);\n  }\n\n  function getvalue() public view returns(uint[] memory ){\n    return arr;\n  }\n  function set(uint x) public {\n    storedData = x;\n  }\n\n  function get() public view returns (uint) {\n    return storedData;\n  }\n}",
  "sourcePath": "D:/Blockchain/react-truffle/contracts/SimpleStorage.sol",
  "compiler": {
    "name": "solc",
    "version": "0.5.16+commit.9c3226ce.Emscripten.clang"
  },
  "schemaVersion": "3.3.4",
  "updatedAt": "2021-04-02T15:12:17.885Z",
  "devdoc": {
    "methods": {}
  },
  "userdoc": {
    "methods": {}
  }
}