{
  "contractName": "ClusterHeadNode",
  "abi": [
    {
      "constant": true,
      "inputs": [
        {
          "internalType": "string",
          "name": "_basename",
          "type": "string"
        },
        {
          "internalType": "string",
          "name": "_clustername",
          "type": "string"
        }
      ],
      "name": "getOrdinaynode",
      "outputs": [
        {
          "internalType": "string[]",
          "name": "",
          "type": "string[]"
        }
      ],
      "payable": false,
      "stateMutability": "view",
      "type": "function"
    }
  ],
  "bytecode": "0x608060405234801561001057600080fd5b506104ca806100206000396000f3fe608060405234801561001057600080fd5b506004361061002b5760003560e01c80634a35ab4914610030575b600080fd5b61004a600480360361004591908101906101d8565b610060565b604051610057919061034e565b60405180910390f35b60606000836040516100729190610337565b90815260200160405180910390208260405161008e9190610337565b9081526020016040518091039020805480602002602001604051908101604052809291908181526020016000905b82821015610178578382906000526020600020018054600181600116156101000203166002900480601f0160208091040260200160405190810160405280929190818152602001828054600181600116156101000203166002900480156101645780601f1061013957610100808354040283529160200191610164565b820191906000526020600020905b81548152906001019060200180831161014757829003601f168201915b5050505050815260200190600101906100bc565b50505050905092915050565b600082601f83011261019557600080fd5b81356101a86101a38261039d565b610370565b915080825260208301602083018583830111156101c457600080fd5b6101cf838284610434565b50505092915050565b600080604083850312156101eb57600080fd5b600083013567ffffffffffffffff81111561020557600080fd5b61021185828601610184565b925050602083013567ffffffffffffffff81111561022e57600080fd5b61023a85828601610184565b9150509250929050565b600061025083836102fe565b905092915050565b6000610263826103d9565b61026d8185610407565b93508360208202850161027f856103c9565b8060005b858110156102bb578484038952815161029c8582610244565b94506102a7836103fa565b925060208a01995050600181019050610283565b50829750879550505050505092915050565b60006102d8826103ef565b6102e28185610429565b93506102f2818560208601610443565b80840191505092915050565b6000610309826103e4565b6103138185610418565b9350610323818560208601610443565b61032c81610476565b840191505092915050565b600061034382846102cd565b915081905092915050565b600060208201905081810360008301526103688184610258565b905092915050565b6000604051905081810181811067ffffffffffffffff8211171561039357600080fd5b8060405250919050565b600067ffffffffffffffff8211156103b457600080fd5b601f19601f8301169050602081019050919050565b6000819050602082019050919050565b600081519050919050565b600081519050919050565b600081519050919050565b6000602082019050919050565b600082825260208201905092915050565b600082825260208201905092915050565b600081905092915050565b82818337600083830152505050565b60005b83811015610461578082015181840152602081019050610446565b83811115610470576000848401525b50505050565b6000601f19601f830116905091905056fea365627a7a7231582006ebdf430960825c08717f34cc4d3a13bc5a7ebc9f90a6f709e4d25e5c2e9bdc6c6578706572696d656e74616cf564736f6c63430005100040",
  "source": "pragma solidity >=0.4.21 <0.7.0;\r\npragma experimental ABIEncoderV2;\r\n \r\ncontract ClusterHeadNode{\r\n\r\n  struct ClusterNode {\r\n      \r\n      mapping(string => string[]) ordinarynodes;\r\n  }\r\n  mapping(string =>  mapping(string => string[])) clusternodes;\r\n\r\n  function addClusterNode(string memory  _basename , string memory _clustername) internal {\r\n      \r\n        clusternodes[_basename][_clustername];\r\n        \r\n    }\r\n    \r\n  function addOrdinayNode(string memory  _basename , string memory _clustername, string memory  _devicename)internal {\r\n      clusternodes[_basename][_clustername].push(_devicename);\r\n  }\r\n    \r\n  function getOrdinaynode(string memory _basename , string memory _clustername ) public view returns(string[] memory ){\r\n        return clusternodes[_basename][_clustername];\r\n    }\r\n    \r\n  function verifyOrdinayNode(string memory  _basename , string memory _clustername, string memory  _devicename) internal  returns(bool){\r\n        //pending\r\n        for(uint i=0 ; i<clusternodes[_basename][_clustername].length ;i++){\r\n            \r\n            log0(\r\n                bytes32(clusternodes[_basename][_clustername].length)\r\n                );\r\n            \r\n            if(keccak256(bytes(_devicename)) == keccak256(bytes(clusternodes[_basename][_clustername][i]))){\r\n                \r\n                log0(\r\n                    bytes32(\"true\")\r\n                    );\r\n            return true;\r\n            }\r\n        }\r\n        return false;\r\n    }\r\n    \r\n  function Request_of_Verify(string memory  _basename , string memory _clustername, string memory  _devicename)internal {\r\n      \r\n      if(verifyOrdinayNode(_basename , _clustername, _devicename) == true){\r\n          \r\n          log0(\r\n              bytes32(\"Device Alreay Exits\")\r\n              );\r\n          revert(\"Device Alreay Exits\");\r\n      }\r\n      \r\n      addOrdinayNode(_basename , _clustername, _devicename);\r\n      \r\n  }\r\n    \r\n}\r\n\r\n\r\ncontract BaseStation is ClusterHeadNode {\r\n\r\n  struct BaseStation {\r\n      \r\n    //   string name;\r\n      string[]  ClusterHeadNodes;\r\n  }\r\n  mapping(string => BaseStation) basestations;\r\n\r\n\r\n  string[] allbasestations;\r\n  \r\n  function addBaseStation(string memory _name) internal {\r\n        basestations[_name];\r\n        allbasestations.push(_name);\r\n        \r\n    }\r\n    \r\n    \r\n  function getBaseStations() public view returns(string[] memory){     \r\n      return allbasestations;\r\n  }\r\n    \r\n    \r\n  function verifyBaseStation(string memory _name) internal view returns(bool){\r\n        \r\n        for(uint i=0 ; i<allbasestations.length ;i++){\r\n            if(keccak256(bytes(_name)) == keccak256(bytes(allbasestations[i]))){\r\n            return true;\r\n            }\r\n        }\r\n        return false;\r\n    }\r\n    \r\n    \r\n  function verifyClusterNode(string memory  _basename , string memory _clustername) internal view returns(bool){\r\n        \r\n        if(verifyBaseStation(_basename) == true){\r\n            for(uint i=0 ; i<basestations[_basename].ClusterHeadNodes.length ;i++){\r\n                if(keccak256(bytes(_clustername)) == keccak256(bytes(basestations[_basename].ClusterHeadNodes[i]))){\r\n                   \r\n                    return true;\r\n                    \r\n                }\r\n            }\r\n            \r\n             return false;\r\n             \r\n        }else{\r\n            revert(\"basestations not exist\");\r\n        }\r\n    }\r\n    \r\n    \r\n  function getClusterNodes(string memory _name) public view returns(string[] memory ){\r\n        return basestations[_name].ClusterHeadNodes;\r\n    }\r\n\r\n    \r\n  function Request_of_Registration(string memory  _basename )public {\r\n      \r\n       if(verifyBaseStation(_basename) == true){\r\n           revert(\"BaseStation already exits\");\r\n      }\r\n      \r\n      addBaseStation(_basename);\r\n  }\r\n  \r\n  \r\n  function Request_of_Registration(string memory  _basename , string memory _clustername )public {\r\n      \r\n      if(verifyClusterNode(_basename , _clustername) == true){\r\n          revert(\"cluster node already exits\");\r\n          \r\n      }\r\n      basestations[_basename].ClusterHeadNodes.push(_clustername);\r\n      addClusterNode(_basename, _clustername);\r\n  }\r\n  \r\n  \r\n  function Request_of_Registration(string memory  _basename , string memory _clustername, string memory  _devicename)public {\r\n      \r\n      if(verifyClusterNode(_basename , _clustername) == true){\r\n           Request_of_Verify(_basename , _clustername, _devicename);\r\n      }\r\n     \r\n  }\r\n  \r\n    \r\n    //genrate public key and private key \r\n    \r\n    // hash device id\r\n\r\n}\r\n",
  "sourcePath": "D:/Blockchain/react-truffle/contracts/BaseStation.sol",
  "compiler": {
    "name": "solc",
    "version": "0.5.16+commit.9c3226ce.Emscripten.clang"
  },
  "schemaVersion": "3.3.4",
  "updatedAt": "2021-04-07T09:59:10.674Z",
  "devdoc": {
    "methods": {}
  },
  "userdoc": {
    "methods": {}
  }
}