{
  "contractName": "SimpleStorage",
  "abi": [
    {
      "constant": true,
      "inputs": [
        {
          "internalType": "uint256",
          "name": "",
          "type": "uint256"
        }
      ],
      "name": "arr",
      "outputs": [
        {
          "internalType": "uint256",
          "name": "",
          "type": "uint256"
        }
      ],
      "payable": false,
      "stateMutability": "view",
      "type": "function"
    },
    {
      "constant": false,
      "inputs": [
        {
          "internalType": "uint256",
          "name": "x",
          "type": "uint256"
        }
      ],
      "name": "addvalue",
      "outputs": [],
      "payable": false,
      "stateMutability": "nonpayable",
      "type": "function"
    },
    {
      "constant": true,
      "inputs": [],
      "name": "getvalue",
      "outputs": [
        {
          "internalType": "uint256[]",
          "name": "",
          "type": "uint256[]"
        }
      ],
      "payable": false,
      "stateMutability": "view",
      "type": "function"
    },
    {
      "constant": false,
      "inputs": [
        {
          "internalType": "uint256",
          "name": "x",
          "type": "uint256"
        }
      ],
      "name": "set",
      "outputs": [],
      "payable": false,
      "stateMutability": "nonpayable",
      "type": "function"
    },
    {
      "constant": true,
      "inputs": [],
      "name": "get",
      "outputs": [
        {
          "internalType": "uint256",
          "name": "",
          "type": "uint256"
        }
      ],
      "payable": false,
      "stateMutability": "view",
      "type": "function"
    }
  ],
  "bytecode": "0x60806040526040518060600160405280601460ff168152602001601e60ff168152602001602860ff16815250600190600361003b92919061004e565b5034801561004857600080fd5b506100c5565b82805482825590600052602060002090810192821561008f579160200282015b8281111561008e578251829060ff1690559160200191906001019061006e565b5b50905061009c91906100a0565b5090565b6100c291905b808211156100be5760008160009055506001016100a6565b5090565b90565b610267806100d46000396000f3fe608060405234801561001057600080fd5b50600436106100575760003560e01c806360fe47b11461005c57806366d29e6e1461008a57806369bd01c4146100b85780636d4ce63c1461011757806371e5ee5f14610135575b600080fd5b6100886004803603602081101561007257600080fd5b8101908080359060200190929190505050610177565b005b6100b6600480360360208110156100a057600080fd5b8101908080359060200190929190505050610181565b005b6100c06101b0565b6040518080602001828103825283818151815260200191508051906020019060200280838360005b838110156101035780820151818401526020810190506100e8565b505050509050019250505060405180910390f35b61011f610208565b6040518082815260200191505060405180910390f35b6101616004803603602081101561014b57600080fd5b8101908080359060200190929190505050610211565b6040518082815260200191505060405180910390f35b8060008190555050565b600181908060018154018082558091505090600182039060005260206000200160009091929091909150555050565b606060018054806020026020016040519081016040528092919081815260200182805480156101fe57602002820191906000526020600020905b8154815260200190600101908083116101ea575b5050505050905090565b60008054905090565b6001818154811061021e57fe5b90600052602060002001600091509050548156fea265627a7a723158202732f15d2013c0c59cdad4d66c4481ef0720d221f4a14084d9acd5db1089758d64736f6c63430005100032",
  "source": "// SPDX-License-Identifier: MIT\npragma solidity >=0.4.21 <0.7.0;\n\ncontract SimpleStorage {\n  uint storedData;\n  uint[] public arr = [20,30,40];\n\n  function addvalue(uint x) public{\n    arr.push(x);\n  }\n\n  function getvalue() public view returns(uint[] memory ){\n    return arr;\n  }\n  function set(uint x) public {\n    storedData = x;\n  }\n\n  function get() public view returns (uint) {\n    return storedData;\n  }\n}\n",
  "sourcePath": "D:/Blockchain/react-truffle/contracts/SimpleStorage.sol",
  "compiler": {
    "name": "solc",
    "version": "0.5.16+commit.9c3226ce.Emscripten.clang"
  },
  "schemaVersion": "3.3.4",
  "updatedAt": "2021-04-01T17:01:30.439Z",
  "networkType": "ethereum",
  "devdoc": {
    "methods": {}
  },
  "userdoc": {
    "methods": {}
  }
}